:0608A60004080000000040
:10088C00E4FAF9F8E50B2401F50BEA350AF50AE967
:0A089C003509F509E83508F50822D2
:03000000020800F3
:0C080000787FE4F6D8FD75810B020847F4
:10080C0002088CE493A3F8E493A34003F68001F26E
:10081C0008DFF48029E493A3F85407240CC8C333ED
:10082C00C4540F4420C8834004F456800146F6DFBC
:10083C00E4800B01020408102040809008A6E47E9E
:10084C00019360BCA3FF543F30E509541FFEE493B1
:10085C00A360010ECF54C025E060A840B8E493A378
:10086C00FAE493A3F8E493A3C8C582C8CAC583CAA3
:10087C00F0A3C8C582C8CAC583CADFE9DEE780BE5B
:0108AC00004B
:00000001FF
