:0B096F00040B00000000030800000B58
:10095A00EFA805088005C333CE33CED8F9FFEE33AE
:05096A0095E0FDFC22F8
:10080000AB08050AE50AAA097002050914F91209DC
:1008100041F580E4FAF9F8E50E2401F50EEA350D0C
:10082000F50DE9350CF50CE8350BF50BAB08050AB1
:10083000E50AAA097002050914F9120941F590E4C4
:10084000FAF9E50E2401F50EEA350DF50DE9350C42
:10085000F50CE8350BF50BAB08050AE50AAA09709B
:1008600002050914F9120941F5A0E4FAF9E50E248C
:1008700001F50EEA350DF50DE9350CF50CE8350BF3
:10088000F50BAB08050AE50AAA097002050914F977
:10089000120941F5B07B007A00790B8B088A09892F
:1008A0000AAE0DAF0E120941FD12095A8F0E8E0DC0
:0508B0008D0C8C0B22F1
:030000000208B53E
:0C08B500787FE4F6D8FD75810E0208FC87
:10094100BB010689828A83E0225002E722BBFE02B4
:09095100E32289828A83E49322E7
:1008C100020800E493A3F8E493A34003F68001F245
:1008D10008DFF48029E493A3F85407240CC8C33338
:1008E100C4540F4420C8834004F456800146F6DF07
:1008F100E4800B010204081020408090096FE47E1F
:10090100019360BCA3FF543F30E509541FFEE493FB
:10091100A360010ECF54C025E060A840B8E493A3C2
:10092100FAE493A3F8E493A3C8C582C8CAC583CAED
:10093100F0A3C8C582C8CAC583CADFE9DEE780BEA5
:01097A00007C
:00000001FF
